:100000000C9440030C945D030C945D030C945D030D
:100010000C945D030C945D030C945D030C945D03E0
:100020000C945D030C945D030C94152B0C94D02957
:100030000C940F2D0C945D030C945D030C945D03E4
:100040000C945D030C945D030C945D030C945D03B0
:100050000C945D030C94D12C0C945D030C945D0303
:100060000C945D030C945D030C945D030C945D0390
:100070000C945D030C945D030C945D030C945D0380
:100080000C945D030C945D030C945D030C945D0370
:100090000C945D030C945D030C945D030C945D0360
:1000A0000C945D030C945D030C945D03AB03AE03F1
:1000B000B303B603B903BC03BF0317088B081F08BB
:1000C000E907ED072308F00726083108FB07810838
:1000D000FF07350803083908630807083D086D085D
:1000E0000D0843084D08F4072A08F7072D081208E1
:1000F0004808590879087B08E5071B0894086A092D
:1001000070095E09640976097C098209A40AA40AB7
:10011000D40AD40A660B840BB10CB10C890B010C08
:10012000140C140C601276127C123F143F14B2129D
:10013000BE12CD123F14D412FB121E1354135713C8
:1001400063136D138513BD13CF13F5131714D12744
:10015000F827B529F827B52944286728B52969293A
:100160007929676974206C6F67202D2D6F6E656C1F
:10017000696E65202D2D6772617068202D2D646574
:10018000636F72617465202D2D616C6C0A00676964
:1001900074206C6F67202D2D6F6E656C696E650A1B
:1001A0000067697420636865636B6F7574202D0A3E
:1001B00000676974207374617475730A00676974E9
:1001C00020707573680A006769742070756C6C0A1A
:1001D000006769742066657463680A00FD377A58A1
:1001E0005A000004E6D6B4460200210116000000C1
:1001F000742FE5A3E000BF008E5D003D8889C654E2
:1002000036C3174FE4F605D5CF592553E48C3A6829
:100210007EB3CB61312A25E3D6C22A25D0AB28692B
:100220002E7AB8D3C8B73996F084FBD09D5073A509
:10023000141683C26BA4BF6A2E9C654E6ED567DE12
:100240002972BE581CB9DA05FF4FD3AFC144D70D90
:10025000AA5D24DEB60EDC9B3D1C6E92BA77D906F1
:10026000DFD1C39EFBD8CEED719D61AF51E2046436
:1002700007A73C96BE9B7FF94297DC29F7E92559F1
:10028000B10F9534E096FD50000000003D329ABE5B
:100290001F094CEB0001AA01C0010000D44B3D3105
:1002A000B1C467FB020000000004595A01000100BC
:1002B000A3023431F11A0000020002009F0234311F
:1002C000F11A000003000100A4023431F11A000009
:1002D0000400020089023431F11A2B3105000100BB
:1002E000A5023431F11A0000060002008B023431FD
:1002F000F11A000007000200A1023431F11A0000D7
:1003000008000100A6023431F11A000009000200C1
:100310008D023431F11A06310A0002008F023431A5
:10032000F11A06310B00020091023431F11A063144
:100330000C00020093023431F11A06310D00020064
:1003400095023431F11A06310E0002009702343161
:10035000F11A06310F00020099023431F11A063108
:10036000100002009B023431F11A06311100020024
:100370009D023431F11A063112000200A702343115
:10038000F11A000013000200A9023431F11A000032
:1003900014000100AB023431F11A00001500000016
:1003A0000000F419711A0000437E467E2352417EFC
:1003B000457E2252407E447E2152A900AB00BD0002
:1003C000AA00AE00BE00A800AC0046002078277846
:1003D00028782178237825782278247826782000B8
:1003E000230026001F00220025001E0021002400FB
:1003F00005010902A10185020901A10005091901F0
:1004000029081500250195087501810205010930AB
:1004100009311581257F95027508810609381581F6
:10042000257F950175088106050C0A38021581257E
:100430007F950175088106C0C005010980A101856D
:100440000319012AB700150126B70095017510811F
:1004500000C0050C0901A101850419012AA002159B
:100460000126A002950175108100C005010906A1B1
:10047000018506050719E029E7150025019508758E
:100480000181020507190029EF1500250195F07576
:10049000018102050819012905950575019102954B
:1004A0000175039101C00660FF0961A10109621590
:1004B0000026FF009520750881020963150026FFBC
:1004C00000952075089102C005010906A1010507E4
:1004D00019E029E7150025019508750181029501AC
:1004E000750881010507190029FF150026FF0095F1
:1004F00006750881000508190129051500250195D3
:100500000575019102950175039101C009025B0017
:10051000030100A0FA090400000103010100092100
:1005200011010001224400070581030800010904AC
:100530000100020300000009211101000122220034
:1005400007058203200001070503032000010904B9
:100550000200010300000009211101000122B60080
:10056000070584032000011201000200000008EDCD
:10057000FE60600001010203011C03760069006156
:10058000006C003A006600360034006300320062FE
:100590000033006300000016036D00610063007209
:1005A000006F007000610064006400790000001AB0
:1005B000034500720069006300200059006F007558
:1005C000006E00670065007200000004030904006B
:1005D000000000000000000000004001000040009A
:1005E000000000100000000100002800000068006A
:1005F0000000006E8700ECFEFFFFC7010000000056
:10060000000000000000002A2B280000000000006D
:100610000000000000000000000029000000002C85
:100620001E1F20212223322526322D36383724273B
:100630001E1F2021222324252637366427642D1FE0
:100640000405060708090A0B0C0D0E0F10111213F2
:100650001415161718191A1B1C1D252E2630382E96
:100660000405060708090A0B0C0D0E0F10111213D2
:100670001415161718191A1B1C1D243527304C0089
:1006800011241FBECFEFDAE0DEBFCDBF11E0A0E046
:10069000B1E0E6E5F9E602C005900D92A437B10796
:1006A000D9F724E0A4E7B1E001C01D92AD3EB20746
:1006B000E1F70E941C0D0C94A9340C940000A1E1F8
:1006C000B0E0E5E6F3E00C945534DC0114962C918F
:1006D000222311F40C94180D7C0161E00E941E2E5F
:1006E0008C01F7018581882331F1E091BD02F09101
:1006F000BE02309701F10E171F07E9F0FF27E8301F
:10070000F10540F4A4E0EE0FFF1FAA95E1F7EC55C8
:10071000FC4F02C0E0E0F0E08581846085831183B6
:100720000083CF010E94631B1092BC0261E0C701ED
:100730000E941E2E8C01D70115963C90332009F49F
:10074000E7C0F801E054FE47E730F105D8F4EA5A73
:10075000FF4F0C94483481ED91E002C087EC91E0AA
:100760000E94D62652C68DEB91E0FACF81EB91E044
:10077000F7CF81EA91E0F4CF8EE891E0F1CF82E605
:1007800091E0EECFC80197578038910508F00CC171
:10079000D02EBFE0B01708F438C68FEF93E00E9468
:1007A000C633811132C604E811E0DD2071F0011575
:1007B000E4E01E0709F429C6C8010E94C63381116E
:1007C00001C0DA940F5F1F4FF0CFE4E05E2E9E0170
:1007D0002F5F3F4F390144244A94D301E52D1D92E8
:1007E000EA95E9F76801FFEFCF1ADF0AC8010E9416
:1007F000C6338983882309F408C6813009F07EC096
:10080000580122E0A20EB11CC6010E94C633382E48
:100810008A83882309F4F9C58FEF830D833060F450
:10082000680133E0C30ED11CC5010E94C6338B831F
:10083000811164C08601D1CF8BEF830D833078F5B1
:10084000480143E0840E911CC5010E94C6338B838E
:10085000811102C06401EECF680154E0C50ED11CC5
:10086000C4010E94C6338C83882321F32B813C81F1
:1008700021308FEF380718F0922F80E001C0C901B6
:10088000A6E03A1631F0B7E03B1631F00E94EB32A9
:10089000D1CF0E94C632CECF0E944C32CBCFE4E003
:1008A0003E1611F06501C6CFC5010E94C633B82EB1
:1008B0006801F4E0CF0ED11CC80103960E94C63334
:1008C000BB2009F4A2C5882309F49FC5282F30E076
:1008D00021503109429EA001439E500D11248B2DC1
:1008E00090E00197840F951F019708F4A3CFAFE91B
:1008F000BFE01197F1F700C00000F6CF78866F8255
:10090000BE01695F7F4F8CEE99E10E94282692CF4D
:100910006801E7E5DE1AFFEFCF16D10411F008F009
:100920005DC06AE973E08C2D0E94A51D892BB9F585
:10093000C60174E0880F991F7A95E1F7FC01EC5528
:10094000FC4F22812130C9F420919A0330919B03FE
:10095000232B29F120919C0330919D03232BF9F047
:1009600020919E0330919F03232BC9F42091A00373
:100970003091A103232B49F012C0223081F4209141
:100980009E0330919F03232B51F0FC01E755FC4F50
:1009900020812E7F20838C559C4F0E94631BD701A2
:1009A00015963C903320D9F00E35BCE71B0761F05B
:1009B0000F35ECE71E0761F00D35FCE71F0779F4F2
:1009C00080910001811104C081E0809300011DC568
:1009D0001092000180E00E94081D17C5312C809103
:1009E0000001811108C0C80197558F3F910511F092
:1009F00008F008C294C1380120EE621A71082090F4
:100A0000400380911203282A8091A001282A38E00F
:100A10006316710480F498012770332781E090E019
:100A200001C0880F2A95EAF7332011F0282A18C050
:100A30008095282215C0332009F432C11093770124
:100A4000009376010E94F72C60937D0270937E02E2
:100A500080937F029093800210928502109284020C
:100A6000D7018D919C910E94A81421E030E0F901FA
:100A700002C0EE0FFF1F8A95E2F7FF87EE872091F5
:100A80008602309187023B872A87409176015091F8
:100A900077015D874C8765E7C62E64E0D62EA12CD2
:100AA000B12C832D90E0998B888B28E0A216B1049D
:100AB00009F40DC1C114D10409F409C1211005C004
:100AC000D60112968C918111E4C0F601838190E0E9
:100AD0002E853F8582239323892B09F4DAC08085F4
:100AE000982F977009F487E038E06316710440F49A
:100AF000332019F081FD09C0CCC082FD06C0C9C0F9
:100B0000332009F4C6C080FFC4C0D6018D909C90EC
:100B10000815190519F4332009F4BBC0EA85FB85D3
:100B2000EC15FD0509F4B5C0D6011D96ED91FC91BB
:100B30001E97309721F08081882309F4AAC0622D86
:100B4000C6010E94751D882309F4A3C00815190564
:100B500019F44888598802C0412C512CB42DB17029
:100B6000B98781E08114910441F0B11106C0EC8590
:100B7000FD858E169F0609F080E080FF8AC080E028
:100B80000E94081DD0928702C092860281E0809365
:100B900083028FE08A9DF0018B9DF00D1124EB58AC
:100BA000FB4F8581809381022985211110C081141A
:100BB000910469F0808191819C0124503109213A8E
:100BC000310518F40E94382D02C00E941A198FE0D6
:100BD0008A9DF0018B9DF00D1124EB58FB4FC680D0
:100BE000D780C6019A9581159F4110F440EED4221A
:100BF00099249394C60101978F339E4708F0912C56
:100C00008FE08A9DD0018B9DB00D1124AB58BB4F56
:100C10001996ED91FC911A97309739F01B966D91CA
:100C20007C911C9781E009959822992059F18FE0D9
:100C30008A9DF0018B9DF00D1124EB58FB4F8681AE
:100C400097810E94A5308093820288E06816710423
:100C500020F4C6010E94BE1C15C0C6010497813A4B
:100C6000910520F48C2D0E94662D0EC00E943F2518
:100C7000AFE3BCE91197F1F700C000008C2D0E9492
:100C80004D1902C00E943F25B1E04B2640FCABCE7F
:100C90001CC1EFEFAE1ABE0AFFE0CF0ED11C05CF8C
:100CA00080917601909177010817190781F41092CD
:100CB00077011092760110927D0210927E021092BE
:100CC0007F0210928002109285021092840280911D
:100CD000860290918702009709F485CE38E063166A
:100CE000710438F4622D0E94751D81117CCE81E063
:100CF00013C0DC012D913C910217130729F4311028
:100D000006C01092830207C0332009F46CCEFC01A8
:100D1000808585FD68CE80E00E94081D64CE580164
:100D2000BB24F8E0AF16B1040CF06FC3C50154E06A
:100D3000880F991F5A95E1F79C012C553C4F69018A
:100D4000D70115962C911597FC01E755FC4F5F01D3
:100D5000808120FB80F9808315968C918823A1F1F6
:100D60000E94032D9093880180938701D6011296EB
:100D70008C9112978F5F12968C9312979091BC0270
:100D80008091A001892B13968C9313978091400337
:100D900014968C93149716964D915C9117971E9606
:100DA0006D917C911F97C6010E94441BF5018081C3
:100DB00081FF03C090E080E002C0902F812F9093CC
:100DC000BD028093BE021EC0D6011C964D915C915F
:100DD0001D971E966D917C911F97C6010E94441B22
:100DE000F501808181FF0EC0C6010E944A1B8091DF
:100DF000BD029091BE020817190721F41092BE029D
:100E00001092BD028091A40280FF32C00E94032D87
:100E10006C01D70115968C91882309F468C08091E4
:100E20000D0182FF08C029E831E040E0B60180E012
:100E300090E00E947A1F0431BCE71B0709F44FC001
:100E40000531ECE71E0709F443C00331FCE71F0737
:100E500029F480910D01816080930D01C8019052A9
:100E60008115904308F059C01092C4011092C3013B
:100E7000F801E851FC47E730F10508F41BC2F7011F
:100E80008581811185C00631BCE71B0709F06AC264
:100E90009091A001292F2A7A3091A30230FD3DC202
:100EA00031FD41C232FD45C233FD49C2882309F4F8
:100EB0004FC281E0211101C080E08093780122239C
:100EC00009F444C285E30E94662D0E943F259DC21D
:100ED00080910D01982F909590FB80F903C080912F
:100EE0000D018E7F80930D010E94401FB7CF013E00
:100EF000110521F480910D018F7E06C0053E11057C
:100F000031F480910D018F7D80930D0106C0C801E1
:100F100090528115904308F4ABCF80910D0180FF72
:100F2000A7CFD70115968C910832110538F40E31F0
:100F30001105B8F40430110578F41CC0093311050B
:100F400038F40D32110590F40B32110579F012C00E
:100F50000436110559F00EC09091A40294FD0AC008
:100F6000F9C09091A40293FD05C0F4C09091A40231
:100F700092FFF0C0882309F47BCF1092C401109235
:100F8000C301F801E851FC47E730F10508F492C1CC
:100F90001092BB02C8019057839708F0BCC184E04F
:100FA00090E00E94CE339093890380938803F801E8
:100FB000E150F047E232F10520F4E35AFF4F0C9480
:100FC0004834809188038160ACC080918903886037
:100FD000B4C0809188038260A4C08091880320C03F
:100FE0008091880388609DC0809189031EC0809194
:100FF00089038260A2C080918803806192C0809141
:10100000880380628EC08091880380648AC00E94B9
:10101000851780918803806884C0809188038860E8
:1010200084607FC0809189038260816086C08091E6
:1010300088038E7F76C080918903877F7EC08091F0
:1010400088038D7F6EC08091880320C080918803C3
:10105000877F67C0809189031EC0809189038D7F3F
:101060006CC0809188038F7E5CC0809188038F7DE7
:1010700058C0809188038F7B54C00E94851780914F
:1010800088038F774EC080918803877F8B7F49C00C
:10109000809189038D7F8E7F50C08091880382FB71
:1010A000222720F991E0922790FB82F990FB83F9A7
:1010B00038C080918903982F909591708E7F892BED
:1010C00090FB81F93AC08091880386FB222720F9A2
:1010D00091E0922790FB86F924C00E9485178091A9
:1010E000880387FB222720F991E0922790FB87F95C
:1010F00018C061E001C060E08EE090E00E94E4333F
:101100001EC08091880384FB222720F991E092275A
:1011100090FB84F906C080918803982F909590FBEE
:1011200080F9809388030BC08091890383FB222779
:1011300020F991E0922790FB83F9809389036091D5
:1011400088037091890384E090E00E9402340E9439
:1011500085175BC1882309F4A6C090914003809154
:10116000A001892B8D7F79F11092C4011092C301E7
:101170008091A40281FD27C0F80143E0F695E79530
:101180004A95E1F7EE71FF27EF55FE4F98012F705A
:10119000332781E090E002C0880F991F2A95E2F77B
:1011A0008095909520813181822393239183808340
:1011B000A70160E0C8010E945F1F809140038D7FFE
:1011C0000E9460246CC089E0F701A9E8B1E00190B9
:1011D0000D928A95E1F710928C0110928B0180910B
:1011E000C3019091C40108171907E1F58091A40289
:1011F00085FF38C090910D0191FF02C086FF32C07B
:101200008091C1019091C2015601A81AB90AB70193
:10121000C8010E941632A816B90620F58091A001D7
:1012200081FF08C080910D01806180930D0182E0F3
:101230000E9490248091A00185FF08C080910D013B
:10124000806280930D0180E20E94902460910D01E4
:1012500066956170A7018091C3019091C4010E94BD
:101260005F1FD3C0809140039091A001982B969569
:10127000917020910D0190FB21F920930D018D7F3C
:101280000E9460241093C4010093C301D092C20154
:10129000C092C10180910D01846080930D0182E0B4
:1012A0000E94A424B2C0970140E0B601C8010E9488
:1012B0007A1FABC0E158FF4F0C94483406E221EE90
:1012C00041EE6AE17CE723C007E225EE45EE6BE1E3
:1012D0007CE71DC006E221EE40EE68E17CE717C026
:1012E00007E225EE44EE69E17CE711C006E221EE5B
:1012F00042EE6CE17CE70BC007E225EE46EE6DE1C5
:101300007CE705C008E221E045EE6EE17CE7C7011D
:101310000E948A1B7AC081E0B6CD492F447409F43B
:10132000BFCD20E0BDCD492F417109F4BBCD20E0F8
:10133000B9CD492F487809F4B7CD20E0B5CD9272E8
:1013400009F4B4CD882321F01092780189E2BBCD55
:1013500080917801882311F085E301C089E20E9421
:10136000382DB3CD0737ECE71E0731F4882311F091
:1013700081E009C081E00BC00837FCE71F0779F462
:10138000882321F082E00E94431503C082E00E947E
:10139000361543E062E081E00E94141536C09801E2
:1013A000205E324520323105A8F4811113C00F713F
:1013B00081E090E09C0102C0220F331F0A95E2F702
:1013C0008901622F83E090E00E94E433802F0E9425
:1013D0004F151BC0F7018581882309F44FC00330E6
:1013E0003CE71307B9F148F501155CE7150701F56E
:1013F0000E948517EFEFF4E32CE0E150F04020402D
:10140000E1F700C000000E94C02C80911503877096
:1014100009F40EC3D70115968C91882309F408C3EB
:101420008091890382FF04C382E00E94A42400C348
:1014300001308CE71807A1F021C00B359CE7190794
:10144000D1F00C35ACE71A0771F00A351C47B1F43E
:1014500081E012C06FEF7FEF80E090E00E940234E5
:101460000E948F30D2CF8091890382FB882780F938
:1014700091E0892701C080E00E94BB24D701179624
:101480008D919C9118970097B9F4F701858100819F
:101490001181882349F0C8010E946C14D82E682F4E
:1014A000C8010E94DC1404C0C8010E94A814D82EF0
:1014B000B8018D2D0E94F7220E941423182F092FA6
:1014C00086E0F701DE01119601900D928A95E1F711
:1014D000D7011596BC9015971696CC90C2943FE014
:1014E000C322809115038770F9F0BB20E9F0892FA2
:1014F000807F803461F080E2810F8830A8F0892FEE
:10150000807E803221F4123078F0CC2069F0809116
:10151000890382FF09C082E00E94A4248091150300
:101520008770AA24A3948111A12C902E92942FE06D
:101530009222892D90E08C30910508F012C2FC01B6
:10154000EA57FF4F0C944834902F9F70802F807F74
:10155000D92E19F0D29490EFD922BB20A9F0DD202A
:1015600009F4DFC180E2810F883010F0111104C04E
:101570008D2D0E94972405C08091BC02D82AD0925C
:10158000BC020E943F25CDC1812F0E941A19DD2087
:1015900009F4E7C180E2810F883068F1112359F125
:1015A0008D2D0E9489242AC0902F9F70802F807FCC
:1015B000D92E803219F0D29480EFD822112321F055
:1015C000113009F469C074C08091890382FD19C08B
:1015D000BB2059F0DD2029F08D2D0E9497240E9418
:1015E0003F2580E00E944D19BCC180E00E941A197D
:1015F000DD2009F4B6C18D2D0E9490240E943F2564
:10160000B0C1BB2081F1CC2009F456C0B1E0CB12AF
:1016100012C0809140038D21D81609F4A2C10E9406
:10162000032D90933F0380933E0380914003D82A7B
:10163000D092400396C18091A502823008F491C1F6
:10164000C8128FC18D2D0E943B188D2D0E947424CD
:10165000809112039D2D9823D91609F482C1D82AAE
:10166000D09212037EC1CC2069F08091A502823015
:1016700008F477C1E1E0CE1274C18091A0018D2100
:1016800009F46FC18D2D0E9434188D2D0E94742491
:101690008D2D0E94912565C18091AB02BB2021F068
:1016A0008C1508F45EC108C0C81608F05AC10AC0FB
:1016B000BB2031F0C11035C18D2D0E943B1851C1A6
:1016C000C11038C18D2D0E9434184BC1802F8695D2
:1016D0008695837019F0813061F043C1BB2021F001
:1016E000812F902F937002C080E090E00E94C22D65
:1016F0003FC1BB2021F0812F902F937002C080E06A
:1017000090E00E949D2D34C16B2D812F0E944218C4
:101710002FC1802F8370B9F5B11027C1912F9295F9
:1017200096959770990F990F212F2F7030E0A9018E
:10173000092E01C0440F0A94EAF714FF08C02FE0F5
:1017400030E001C0220F9A95EAF7209501C020E011
:10175000902F969596959370923069F088F48091C9
:101760008101913019F0242B822302C0842B822B1B
:101770000E944F15FAC0242B809181018227F8CF57
:10178000822F842BF5CFBB2019F0802F817001C0F0
:101790008695882309F4E9C0912F929596959770C4
:1017A000990F990F212F2F7030E0A901092E01C048
:1017B000440F0A94EAF714FF08C02FE030E001C09C
:1017C000220F9A95EAF7209501C020E0902F969578
:1017D00096959370923059F078F48091820191300F
:1017E00019F0242B82230AC0842B822B07C0242BC0
:1017F00080918201822702C0822F842B0E941115C2
:10180000B4C0F02FFF70DF2EBB2039F08F2F0E9465
:101810004315812F0E943B18A8C0812F0E943418C5
:101820008D2D0E943615A1C0123F11F128F4103FF2
:1018300041F0113FA9F171C0133F01F1143F61F173
:101840006CC08091AB02BB2021F0C81608F089C0A3
:1018500003C08C1508F485C0202F2F7181E090E023
:1018600001C0880F2A95EAF790918201892711C05B
:10187000802F8F71BB2009F458C06FC0BB2041F08E
:1018800081E0902F9F7101C0880F9A95EAF701C0FF
:1018900080E00E94111565C08091890382FD06C019
:1018A000802F8F71BB2009F458C03FC08091A502E2
:1018B000823008F1BB2089F0909115039770943025
:1018C00039F40E949D24802F8F710E94361548C0E4
:1018D000C81608F045C063E005C0C81640F00E9475
:1018E0009D2464E0802F8F710E94D22439C081E052
:1018F0000E94A42435C0BB2031F063E0802F8F719B
:101900000E94D2242EC081E00E94A42421E02C1544
:1019100040F582E00E94A42424C0BB2049F0CC20E2
:1019200011F0812F5FCE802F8F710E94431519C057
:10193000CC2089F0193329F48091A9029091AA0250
:1019400004C08091A7029091A8020E946F1F812F6E
:101950000E941A1906C0802F8F710E94361501C08F
:10196000A12C88EF890D843018F40E94E72DA12C5A
:10197000812F902F0E9452158823F1F1BB2071F026
:10198000CC2019F010927D0137C080917C018093AA
:101990007B018091A00180937C012EC01E8220E0FB
:1019A00049815A816B817C818D8190E00E94F92D63
:1019B0000091A001CC2019F010927D011BC0209154
:1019C000790130917A0182179307A1F48091A602E0
:1019D00083FFF2CF80917D01882371F380917B0199
:1019E0000E943B18812F0E94D51980917B010E9493
:1019F0003418E2CF00937C01AA20B1F08091150346
:101A000080FD12C0D70115961C9286958695869505
:101A10000E944315C7010E945F03809115038695BC
:101A2000869586950E94361560E0C7010E941E2E9D
:101A30006196E2E10C947134A9E3B0E0E2E2FDE0EA
:101A40000C94553485B7806885BF85B7806885BF9D
:101A500084B7877F84BF0FB6F894A8958091600003
:101A6000886180936000109260000FBE90E080E873
:101A70000FB6F89480936100909361000FBE81E0EF
:101A80008093180185E491E290937501809374012D
:101A90000E9434320E94D2310E9466310E942D2071
:101AA0000E94142A0E94BA2A8091E20084608093E6
:101AB000E2007894809150038823A1F01091E9000E
:101AC0001F709091EC00892F817090FD80E8182B99
:101AD0001092E9008091E80083FD0E94E9261F70C2
:101AE0001093E90082E084BD93E095BD9AEF97BD25
:101AF00080936E000E942B1B811102C00E94352131
:101B000082E30E94322283E30E94322281E30E9418
:101B1000322284E90E94322286E60E94322287E93C
:101B20000E94322283E0E5E9F1E0DF01282F1D92D7
:101B30002A95E9F7EEE7F1E0DF011D928A95E9F7D2
:101B400080E090E00E94CE33853E9E4F21F40E94BB
:101B50002B1B811163C065EE7EEF80E090E00E9458
:101B6000023460E082E090E00E94E43381E0809300
:101B7000810161E083E090E00E94E43360E074E181
:101B800084E090E00E94023460E086E090E00E94F1
:101B9000E43360E087E090E00E94E43340E050E00E
:101BA000BA0188E090E00E94F63360E083E290E0C2
:101BB0000E94E43360E08CE090E00E94E43360E057
:101BC0008DE090E00E94E43319821A821B821C820D
:101BD0001D821E821F82188648E050E067E170E097
:101BE000CE0101960E94D43340E050E0BA018FE16B
:101BF00090E00E94F63380E00E940C1B0E94352189
:101C000040E050E0BA018FE090E00E94F63340E0FF
:101C100050E0BA0183E190E00E94F63382E090E068
:101C20000E94C6338093830184E090E00E94CE330B
:101C300090938903809388030E944922EFEFF6E78F
:101C400021E0E150F0402040E1F700C000000E9498
:101C500049228091950180FF08C06FEF7FEF80E0FF
:101C600090E00E9402340E94C02C83E090E00E9429
:101C7000C6330E944F1581E091E0909385038093D5
:101C80008403992493946E013BE2C30ED11C8E0110
:101C90000F5F1F4F80915003853009F042C0F0E480
:101CA000FF2E80915003853009F037C0809150039A
:101CB000843019F110928A0388E190E00FB6F8940D
:101CC000A895809360000FBEF092600083B7817F7B
:101CD000846083BF83B7816083BF7894889583B71E
:101CE0008E7F83BF0FB6F894A895809160008861BD
:101CF00080936000109260000FBE0E944922809184
:101D000095018111C3C5809196018111BFC5809154
:101D10009701882309F4C5CFB9C50E9485170E9491
:101D2000E72D0E94492274E8E72E71E0F72EE5E9DD
:101D3000AE2EE1E0BE2ED501F70191918D9189275C
:101D400027E831E02E173F0719F08823B1F305C0CB
:101D5000811103C00E94312433C0712CD5013D9004
:101D60005D01F7012080232411F1612C88248394E4
:101D7000822D8821A9F06CAA7DAA0E94032D9FAB19
:101D80008EABF1E0F8AF91E0832D882109F490E06B
:101D900099AF4CA95DA96EA97FA988AD0E942D2E8F
:101DA0006394880C23E06212E3CFD7013C927394D2
:101DB000BFEFEB1AFB0AE3E07E12D0CF0E94F72CB4
:101DC0008091840290918502892BB9F1409079022B
:101DD00050907A0260907B0270907C020E94F72CF7
:101DE000DC01CB0184199509A609B7094091750258
:101DF000509176026091770270917802841795076E
:101E0000A607B707D0F080918402909185020E94C6
:101E1000EC30109285021092840210927902109296
:101E20007A0210927B0210927C021092750210923C
:101E3000760210927702109278028091BD02909102
:101E4000BE02892B79F1E0908701F09088010E9411
:101E5000032D8E199F097C0189E0D6011D928A9578
:101E6000E9F7B6018091BD029091BE020E94163240
:101E70008E159F05B8F48091BD029091BE029927FE
:101E80008830910540F464E0880F991F6A95E1F766
:101E90008C559C4F02C080E090E0FC01258122FF20
:101EA0000E94631B80910E01882359F1E090730218
:101EB000F0907402E114F10421F10E94032D8E19B7
:101EC0009F092091C5013091C60128173907C8F430
:101ED0009091710280917202981759F00E94A71E8A
:101EE0001092C6011092C5011092740210927302F2
:101EF00008C00E943D1E10927402109273020E944C
:101F0000871E8091A40280FF1EC080910D0182FF78
:101F10001AC00E94032D2091C1013091C201AC0171
:101F2000421B530B20910B0130910C0142175307B8
:101F300050F029E831E041E0BC018091C30190916B
:101F4000C4010E947A1F86E0E3EBF2E0D801019021
:101F50000D928A95E1F78090B4026090B50270907E
:101F6000B602E090B702F090B8021092B50210925B
:101F7000B6021092B7021092B802611003C0772027
:101F800009F45AC0A090B102B090B2020E94032D91
:101F9000AC014A195B0990918802992339F020918C
:101FA0001B0130E02417350758F046C020911C0172
:101FB000FAE02F9F900111242417350718F03CC038
:101FC0009F3F19F09F5F90938802662061F00E9406
:101FD000611C161414F491E001C09FEF899F802DBD
:101FE00011248093B502772061F00E94611C1714C0
:101FF00014F09FEF01C091E0899F802D1124809300
:10200000B6028091B5028823B9F0B090B602BB2029
:1020100099F00E94B01C882319F08093B50202C089
:102020009092B5028B2D0E94B01C882319F08093EA
:10203000B60202C09092B602E11003C0FF2009F47C
:102040005AC0A090AF02B090B0020E94032DAC0124
:102050004A195B099091AD02992339F02091190139
:1020600030E02417350758F046C020911A018AE065
:10207000289F900111242417350718F03CC09F3F7A
:1020800019F09F5F9093AD02EE2061F00E94281C32
:102090001E1414F491E001C09FEF899F802D11243C
:1020A0008093B702FF2061F00E94281C1F1414F0D7
:1020B0009FEF01C091E0899F802D11248093B80289
:1020C0008091B7028823B9F0B090B802BB2099F094
:1020D0000E94B01C882319F08093B70202C090922E
:1020E000B7028B2D0E94B01C882319F08093B80290
:1020F00002C09092B8028091B40288111AC08091F7
:10210000B502882311F0861114C08091B60288238D
:1021100011F087110EC08091B802882311F08F1141
:1021200008C09091B702992331F081E09E1104C05C
:1021300002C081E001C080E080FD15C08091B50241
:1021400081110FC08091B60281110BC08091B7023E
:10215000811107C081E09091B802911103C080E025
:1021600001C081E080FD0E94FE1B8A826B827C821E
:10217000ED82FE8286E0F801A3EBB2E001900D92C1
:102180008A95E1F70E94E72D90919201891721F03D
:10219000809392010E94F72C80915003843009F0C3
:1021A00079CD83E08093E9008091E80082FF72CDD1
:1021B0008091E80085FF21C00E94332A81111BC055
:1021C00050E2A52EB12C780109C08091F100D70111
:1021D0008D937D01B1E0AB1AB10869F08091E80000
:1021E00085FDF3CF8091E8008B778093E8000E9413
:1021F000332A882399F391E001C090E08091E800B0
:102200008B778093E800992309F444CDE0909801FE
:10221000F09099018981E114F10461F08E3F09F099
:102220002EC38A81833008F43FC18550833008F083
:1022300026C33AC1893009F420C3F0F4843009F48C
:102240006AC050F48230C9F108F058C0813009F0FA
:1022500014C31A8289E03FC2863009F463C008F0D3
:102260000CC32D813E813227232732274C816B817D
:102270008A810E94BA1D03C3803109F4B4C088F476
:102280008D3009F452C030F48C3009F0F6C2E0E130
:10229000EA83F5C28E3009F44CC08F3009F474C063
:1022A000ECC2823109F4A5C008F4A0C0833109F45E
:1022B000C9C08E3F09F4F8C0E0C28A81823009F4B7
:1022C00002C3833051F0813009F0D7C20E94F72C4D
:1022D0009B838C837D836E83D2C280910F0190910A
:1022E0001001892B09F4CBC2809195018B838091D9
:1022F00096018C83809197018D83C1C28A8182303F
:1023000009F0BBC26B817C818D819E810E944E341D
:102310000E94F42DB4C24C816B818A810E94E11D20
:102320009D83D8C20E94A520AAC282E08A838CE73E
:10233000D2C1EA80FB80FE24EF24FE246C80712C45
:10234000FDE16F16710408F09AC25801C7018C575D
:102350009E4F9501201B310B2615370508F08FC2C3
:102360002CE7E21622E0F20630F40E94C633D501D3
:1023700014968C9302C0F5011482FFEFEF1AFF0A46
:102380002FEFA21AB20AE2CF80910F0190911001B3
:10239000892B09F474C2EA80FB80FE24EF24FE241A
:1023A000AC80B12C3DE1A316B10408F068C238013D
:1023B000C7018C579E4F9301201B310B2A153B05FB
:1023C00008F05DC24CE7E41642E0F40628F4D301BD
:1023D00014966C910E94E433BFEFEB1AFB0AEFEF07
:1023E0006E1A7E0AE5CF0E94951D49C284E08A8359
:1023F00046C2EA80FB80FE24EF24FE246C80712C10
:10240000FDE16F16710408F03AC25801C7018896C1
:102410009501201B310B2615370508F030C228E442
:10242000E216F10430F40E94C633D50114968C9361
:1024300002C0F5011482FFEFEF1AFF0A2FEFA21A74
:10244000B20AE4CFEA80FB80FE24EF24FE24AC80B5
:10245000B12C3DE1A316B10408F011C248E4E41622
:10246000F10408F00CC288E490E08E199F098A15E7
:102470009B0508F404C23801C70188969301201B0C
:10248000310B2A153B0508F0FAC1A8E4EA16F1045D
:1024900020F4F30164810E94E433FFEFEF1AFF0A96
:1024A0002FEF621A720AE8CFEA818E2F90E08E3009
:1024B000910508F0E4C1FC01EE56FF4F0C9448343E
:1024C00088E0EDE1F1E0DE01919601900D928A95B0
:1024D000E1F780E2D8011D928A95E9F786E08983C9
:1024E00088E0FE01B196DE0115969CC180ED8983DE
:1024F0001A821B821C82C3C18C8190E0982F88278E
:102500002B81820F911D092E000CAA0BBB0B45E0FD
:10251000880F991FAA1FBB1F4A95D1F7AC01BD01B7
:10252000405E5F4F6F4F7F4F481759076A077B0721
:1025300008F4A5C1803D9105A105B10508F09FC132
:10254000413D51056105710520F040ED50E060E02E
:1025500070E0481B590BBC0164527E4FC8010E94B9
:10256000AD338DC140E250E06FEF70E0C8010E94D2
:10257000A23480910F018983EA8281C181E090E0D9
:10258000909399018093980182E390E09093940155
:10259000809393010E94032D72C180910F01898362
:1025A000EA828091930197C0EB80FC8040E250E08A
:1025B0006FEF70E0C8010E94A2342CEA32E080E0A4
:1025C00090E0AC014E5F5F4F4132510508F057C1BA
:1025D000F90165917491E616F70630F4F801E80FF9
:1025E000F91F71836083CA01245F3F4FB3E0283A2B
:1025F0003B0739F744C12B813C818CEA92E0FC0116
:10260000459154912417350731F00C96E3E0883A50
:102610009E07A9F732C1009709F42FC1FC01369635
:10262000259134912115310509F427C14FE150E07E
:10263000BE016E5F7F4FF901099520C18B819C819E
:102640002CEAE22E22E0F22EF70125913491281790
:10265000390749F0FCE0EF0EF11C28EAE21623E00E
:10266000F20691F70AC1E114F10409F406C1F70179
:102670003896259134912115310509F4FEC04CE1BD
:1026800050E0BE016B5F7F4FC701F90109950097CC
:1026900009F0F4C0F7013A9685919491009711F0F2
:1026A000FC01099580E0EAC00E945320E8C0EB815C
:1026B0008E2F90E08730910508F0E1C0FC01E056D4
:1026C000FF4F0C94483480E2D8011D928A95E9F7B7
:1026D00088E089838A838B83D2C08C819AE0B92E6B
:1026E0007E01B1E2EB0EF11CF7012B2D11922A9520
:1026F000E9F7B7010E94A51D8983F701DE01129653
:1027000001900D92BA94E1F7BAC0FC808AE0FE0114
:102710003596DE01919601900D928A95E1F789A197
:102720009AA10E949D339AA389A38BA19CA10E9488
:102730009D339CA38BA38DA19EA10E949D339EA33C
:102740008DA38FA198A50E949D3398A78FA337E0F2
:102750003F1570F04AE0F49EB00111246C567F4F93
:102760004AE050E0CE0181960E94083480E001C02A
:102770008FEF89830E94343282C06C81CE018196B2
:102780002AE0DC011D922A95E9F7683008F043C081
:10279000BAE06B9FB00111246C517F4F36C0FC80B2
:1027A0008AE0FE013596DE01919601900D928A95A0
:1027B000E1F789A59AA50E949D339AA789A7E7E02A
:1027C000EF1570F0FAE0FF9EB00111246C517F4FBD
:1027D0004AE050E0CE0181960E94083480E001C0BA
:1027E0008FEF89830E94D2314AC06C81CE018196DD
:1027F0002AE0DC011D922A95E9F7683060F4BAE01E
:102800006B9FB00111246C5C7E4F4AE050E00E9447
:10281000B63380E001C08FEF89838AE0FE01B19674
:10282000DE01129601900D928A95E1F728C0FC8096
:102830008AE0FE013596DE01919601900D928A950F
:10284000E1F78BA19CA10E949D339CA38BA3E7E0A1
:10285000EF1570F0FAE0FF9EB00111246C5C7E4F22
:102860004AE050E0CE0181960E94083480E001C029
:102870008FEF89830E94663102C08FEF898340E227
:1028800050E0B80182E00E94592C04CA80914F03A5
:10289000882309F406CA90E199BDA2E1A9BD09B453
:1028A00000FEFDCF8091D8008F7D8093D80080916D
:1028B000E00082608093E0008091E00081FDFCCF29
:1028C0000E948517EEC987E290E00E94C6331B8202
:1028D0001C821D828E83D3CFCF92DF92FF920F9303
:1028E0001F93CF93DF936C0100918201809181014E
:1028F000082BC3E0D0E010E0C8010C2E02C0959573
:1029000087950A94E2F780FD04C02197A8F7F12C7F
:1029100009C0FC2EB6018C2F0E94F7220E941423BE
:10292000019799F38F2DDF91CF911F910F91FF9018
:10293000DF90CF900895CF93DF93EC010E946C1449
:10294000BE010E94F7220E941423DF91CF910895C7
:10295000292F933078F5833068F590E033E0239F9A
:10296000800D911D1124682F677023E0969587953F
:102970002A95E1F7FC01EE0FFF1FE80FF91FE6565D
:10298000FE4F40E050E080E0219130E0062E02C092
:10299000369527950A94E2F721703327042E01C05B
:1029A000220F0A94EAF7822B4F5F5F4F43305105A5
:1029B00059F7089580E00895292F933088F58330E2
:1029C00078F590E033E0239F800D911D1124282F8E
:1029D000277051E001C0550F2A95EAF723E096953C
:1029E00087952A95E1F7FC01EE0FFF1FE80FF91F0D
:1029F000E656FE4F20E030E070E04081CB01022E31
:102A000002C0969587950A94E2F781708195842794
:102A10008523842781932F5F3F4F2330310569F74A
:102A200008958093820108959091820121E030E021
:102A3000F90101C0EE0F8A95EAF7D90102C0AA0F89
:102A4000BB1F6A95E2F7BD016E2B01C0220F4A95AC
:102A5000EAF7892F8623681303C0892F822B03C0CE
:102A60002095822F89230E941115089521E030E0DE
:102A700001C0220F8A95EAF7209580918201822376
:102A80000E941115089521E030E001C0220F8A95BF
:102A9000EAF780918201822B0E941115089580939C
:102AA0008101089592959F70963079F010F49250BC
:102AB00001C09A50923068F4803F69F018F4883E63
:102AC00040F409C0843F29F406C0883E20F0813FCD
:102AD00011F080E0089581E00895FC012481222313
:102AE00071F087819085009719F00E94142304C02B
:102AF000808191810E949B140E945215089580E06C
:102B00000895A8E1B0E0E7E8F5E10C9458348C01B1
:102B100086E0F801DE01539601900D928A95E1F767
:102B2000D80114967C9014971596EC908FEBA82EF4
:102B300082E0B82E8091C302811122C0772009F46F
:102B40005BC0EE2009F455C0C8010E946D15F82E37
:102B5000882309F44EC089E0F801AFEBB2E00190A0
:102B60000D928A95E1F78091C302813031F4809112
:102B7000BF029091C0020E949B140E94C525C0C153
:102B8000F80150806180C280D38060E08FEB92E0DA
:102B90000E941E2EF090C4028091C1029091C20248
:102BA0004601881A990A60E08FEB92E0FF2009F451
:102BB00031C10E941E2E6FEB72E00E941632881601
:102BC000990608F0CCC07720B9F08091C502382F63
:102BD000307F2091C002D80111969C911197332328
:102BE00071F0291709F47AC0C8010E946D1581118E
:102BF00089C0C8010E945F03FF24F39481C1291397
:102C00001FC02091BF029C9129131AC04091C60297
:102C10005091C70217962D913C9118974217530770
:102C200079F4E1100DC08F7080618093C5028FEB45
:102C300092E00E945F038091C502F80186839DC0E7
:102C4000E1103AC040E0662D852D0E949B25E82EBC
:102C5000882329F08091A60280FF8FC036C05B8A4E
:102C60006C8A8B899C890E949B14292F22952F7036
:102C7000243020F49F70223028F009C02A502230DE
:102C800080F014C0992349F0811107C013C0992323
:102C900021F0F8019681907F69F0805E883030F4F1
:102CA00009C0803F38F0815F833020F0C8010E9466
:102CB0005F03EF2CFE2C24C18091C50281608093BC
:102CC000C5028091A60281FD58C08FEB92E00E9460
:102CD0005F03EFEBF2E089E0DF014CC02091BF021F
:102CE000F8019081291380CF4091C6025091C7020C
:102CF000278130854217530709F076CFE11074CF52
:102D00008683DFC0EE2009F474CF2091C502822FA4
:102D100082958F7090E00297BCF08091BF029091F5
:102D2000C0029B878A87DD86CC868091C3028E870E
:102D30001F86288B8091C6029091C7029A8B898B3F
:102D4000CE010A960E945F0389E0F801AFEBB2E082
:102D500001900D928A95E1F70E94C5254DCF809193
:102D6000C502982F907F59F48FEB92E00E945F0389
:102D700089E0D5011D928A95E9F7F12CC1C0772031
:102D800009F43ACF2091C002F801918129131AC0A9
:102D90002091BF029081291315C04091C602509125
:102DA000C702278130854217530761F4E1100AC03A
:102DB0008683C8010E945F0389E0D5011D928A9530
:102DC000E9F79EC0C8010E946D15882309F411CF50
:102DD000EE2009F40ECF2091C502822F82958F70CC
:102DE00090E002970CF4B0CF8091BF029091C002A6
:102DF0009A838983DC82CB828091C3028D831E8279
:102E00002F838091C6029091C70299878887CE014F
:102E1000019698CF0E941E2E6FEB72E00E94163230
:102E20008816990608F067C0772009F4E5CEFE2CD5
:102E3000EE2009F4DECE9091C002F8018181981352
:102E40004CC09091BF028081981347C02091C60268
:102E50003091C7028781908528173907F1F5A09036
:102E6000C102B090C20260E08FEB92E00E941E2E81
:102E70008091A60282FD28C0CA18DB088091A102B9
:102E80009091A202C816D906F8F42091C50220FD3F
:102E90001BC0822F82958F70482F50E0411551053D
:102EA00099F0D80116962C9316974F30510549F09A
:102EB0008F5F982F9295907F822F8F70892B169617
:102EC0008C93C8010E945F0389E0F801AFEBB2E088
:102ED00001900D928A95E1F713C0C8010E946D150B
:102EE000811132CF8091C50281608093C502C801F3
:102EF0000E945F0305C089E0F50111928A95E9F708
:102F00008F2D6896EFE00C9474341092A00180919C
:102F10001701813041F48091880387FF04C08EE15E
:102F2000E4E6F3E003C086E0ECE5F3E0DF011D92A8
:102F30008A95E9F780E090E00E94C22D80E090E061
:102F40000E949D2D1092BC020E943F25E3EBF2E00F
:102F500086E0DF011D928A95E9F7109288021092AF
:102F6000AD021092AE020E94FE1B0895A2E1B0E0F5
:102F7000ECEBF7E10C9463340A871B872C873D87C1
:102F80004E875F87688B798B8A8BCE010A960E9469
:102F9000811581113BC089E0FE013A96DE01119650
:102FA00001900D928A95E1F76E85662379F1209163
:102FB000C80230E0C901019687709927409111033A
:102FC00050E084179507A1F06D8399E0929FD0019E
:102FD000939FB00D1124A753BD4FFE013196019070
:102FE0000D929A95E1F78093C8020E94BB250EC00E
:102FF0000E9485171092C80210921103EFEBF2E0C5
:1030000089E0DF011D928A95E9F719C019E08091E6
:1030100011039091C802891791F0189FC0011124E3
:1030200087539D4F0E948115882349F08091110399
:1030300090E001968770992780931103E8CF6296FC
:10304000E4E00C947F34882321F00E9489240E94BC
:103050003F250895882339F09091BC02892B8093F5
:10306000BC020E943F250895882321F00E949024ED
:103070000E943F250895882321F00E9497240E94F2
:103080003F250895662309F45CC08D3C21F40E941D
:10309000611C819504C08E3C29F40E94611C8093C0
:1030A000B602C5C08F3C21F40E94611C819504C00A
:1030B000803D29F40E94611C8093B502B8C0893D0F
:1030C00019F40E94281C05C08A3D31F40E94281C76
:1030D00081958093B702ABC08B3D21F40E94281CE0
:1030E000819504C08C3D29F40E94281C8093B8026D
:1030F0009EC09FE2980F983078F421E030E0A9015B
:1031000002C0440F551F9A95E2F7CA019091B4028C
:10311000892B8093B4028BC08D3D21F48091AE0247
:1031200081600CC08E3D21F48091AE02826006C0A9
:103130008F3D09F07CC08091AE0284608093AE0226
:1031400076C08D3C39F49091B60297FF35C010924D
:10315000B60259C08E3C29F49091B6021916BCF300
:103160002BC09091B5028F3C29F497FF25C0109297
:10317000B50249C0803D19F41916CCF31DC09091D9
:10318000B702893D29F41916BCF41092B7023BC06E
:103190008A3D19F497FF10C0F8CF8B3D39F4909118
:1031A000B80297FF09C01092B8022DC08C3D21F4DF
:1031B0009091B8021916BCF39FE2980F983080F4F2
:1031C00021E030E0A90102C0440F551F9A95E2F7B3
:1031D000CA0180959091B40289238093B40213C0F0
:1031E0008D3D21F48091AE028E7F0BC08E3D21F487
:1031F0008091AE028D7F05C08F3D29F48091AE0293
:103200008B7F8093AE028091B502811106C08091C0
:10321000B602811102C0109288028091B70281111A
:1032200006C08091B802811102C01092AD020E94C6
:10323000FE1B0895882381F19CEF980F913A18F4B2
:103240000E94382D0DC090E2980F983060F487707E
:1032500091E001C0990F8A95EAF7892F0E94902486
:103260000E943F2508959BE5980F933028F480E055
:1032700090E00E94C22D089598E5980F9B3128F4A4
:1032800080E090E00E949D2D089593E3980F933184
:1032900018F460E00E9442180895CF93882309F43F
:1032A0006AC0C82F8CEF8C0F813AA0F5809117016E
:1032B0008130E1F48091880387FF18C0EC2FE695F8
:1032C000E695E695F0E0EE59FC4F8281282F30E03C
:1032D0004C2F477081E090E002C0880F991F4A95FB
:1032E000E2F782239323892B61F410C0ECE5F3E02D
:1032F00082E693E02191C21721F08E179F07D1F744
:1033000005C08C2F0E94382D0E943F258C2F0E94D3
:10331000662D0CC080E28C0F883058F4C77081E0B5
:1033200001C0880FCA95EAF70E9497240E943F25A2
:1033300022C0EBE5EC0FE33040F4F0E0E55DFE4F3A
:10334000808190E00E94C22D16C0E8E5EC0FEB31C1
:1033500050F4F0E0EE0FFF1FE25DFE4F808191819F
:103360000E949D2D08C083E38C0F833120F461E01F
:103370008C2F0E944218CF9108951F93CF93DF9313
:10338000182FEB010E944D19209741F08FE99FE023
:103390000197F1F700C000002197F6CF812F0E941E
:1033A0001A19DF91CF911F910895893329F4609103
:1033B000A9027091AA0204C06091A7027091A802AC
:1033C0000E94BD190895DC01ED91FC911197849143
:1033D0003196ED93FC930895DC01ED91FC911197EA
:1033E0008191ED93FC930895A0E0B0E0EAEFF9E15C
:1033F0000C945D344430510508F46CC0409188034E
:1034000041FBCC24C0F8D12CCC0CDD1C42FB88271E
:1034100080F9C82FE0E0DE2FCC0FDD1FCC0FDD1FC1
:10342000CC2ADD2A40FBEE24E0F8F12CEC28FD2824
:1034300043FBAA27A0F9B0E023E0AA0FBB1F2A95FF
:10344000E1F7EA2AFB2A44FBEE27E0F9F0E034E05A
:10345000EE0FFF1F3A95E1F7EE29FF2945FB2227E2
:1034600020F930E055E0220F331F5A95E1F72E2B5B
:103470003F2B46FB882780F990E0E6E0880F991FF4
:10348000EA95E1F7822B932B47FB442740F950E064
:103490005695542F442757954795842B952B20916B
:1034A0008903322F3170132F00E0082B192B26953A
:1034B0002170B22EBB0CA12C0A291B29012E000C55
:1034C000220B330BFB01008311832283338380E0C3
:1034D00090E002C08FEF9FEFCDB7DEB7EAE00C942B
:1034E0007934CF92DF92EF92FF924430510508F485
:1034F00071C0FB01C080D180E280F3800E948517FB
:1035000080918803C0FA80F9B701A6017695679586
:103510005795479540FB81F9B701A60122E07695C2
:103520006795579547952A95D1F740FB82F9B701E2
:10353000A60133E076956795579547953A95D1F76B
:1035400040FB83F9B701A601E4E0769567955795AE
:103550004795EA95D1F740FB84F9B701A601F5E05C
:103560007695679557954795FA95D1F740FB85F97C
:10357000B701A601A6E07695679557954795AA9558
:10358000D1F740FB86F9B701A601B7E076956795BC
:1035900057954795BA95D1F740FB87F980938803F3
:1035A00080918903D0FA80F999E0F694E794D79452
:1035B000C7949A95D1F7C0FA81F9809389036091F5
:1035C00088037091890384E090E00E94023480E0D7
:1035D00090E002C08FEF9FEFFF90EF90DF90CF90D1
:1035E0000895DA019C012E5F3F4FF90145915491F6
:1035F000F90125913491A217B30758F0FC013496D4
:10360000859194910E9499340E944A3180E090E023
:1036100008958FEF9FEF0895CF93C82F811102C0B7
:103620006FEF01C065ED84E290E00E94E433C111C8
:1036300002C06FEF01C060EF85E290E00E94E433CA
:10364000C11102C06FEF01C06FED86E290E00E94F1
:10365000E433CF91089584E290E00E94C633853D23
:1036600081F485E290E00E94C633803F51F486E207
:1036700090E00E94C63391E08F3D09F090E0892FE1
:1036800001C080E0817008954115510511F0FA01E3
:1036900009950895CF93DF93EC014A855B856E858C
:1036A0007F850E94441B8B810E9489248C810E940B
:1036B00090240E943F2586E0FE0111928A95E9F749
:1036C000DF91CF910895CF93DF93EC018D8181FD40
:1036D00014C082608D839091BC028B81892B809372
:1036E000BC028C810E9497240E943F254885598501
:1036F0006E857F85CE010E94441B1092BE021092FF
:10370000BD028D8180FD03C0CE010E944A1BDF9166
:10371000CF910895A0E0B0E0E0E9FBE10C945D34C6
:103720007C015B01C42FD22FFC0185818823B1F07D
:103730004093BB020E94032D9093BA028093B9027A
:1037400080E28C0F883008F054C0C77081E001C05F
:10375000880FCA95EAF70E943B184BC08091BB02C4
:10376000481337C0C090B902D090BA020E94032D0E
:103770008C199D096C01B701C5010E941632C8164B
:10378000D90638F510E21D0FCD17B9F080E28C0F85
:10379000883040F4C77081E001C0880FCA95EAF70D
:1037A0000E943418183010F581E09D2F977001C0E9
:1037B000880F9A95EAF70E943B18802F0E94D5192E
:1037C0001830B8F4D77081E001C0880FDA95EAF7B5
:1037D0000AC080E28C0F883060F4C77081E001C0BD
:1037E000880FCA95EAF70E94341803C0802F0E9400
:1037F000D519CDB7DEB7EAE00C9479340E94032DD9
:103800002091B502211104C02091B602222321F09B
:103810009093B2028093B1022091B702211104C0AB
:103820002091B802222321F09093B0028093AF023E
:10383000E0918403F0918503309749F082E0809312
:10384000B3020680F781E02D83EB92E0099508959D
:103850008091AE0280FF08C06091140170E0759500
:1038600067957595679521C081FF06C06091140129
:1038700070E07595679519C082FF04C060911401CE
:1038800070E010C09091AD02992399F060911301FE
:103890009617A0F780911401899FC001112470E050
:1038A0000E9434346038710540F46115710519F4D3
:1038B00006C061E070E0862F08958FE7089581E0EB
:1038C00008958091AE02209191023091920280FF82
:1038D0000CC080911201829FB001839F700D112452
:1038E00076956795769567952FC081FF0AC0809180
:1038F0001201829FB001839F700D11247695679508
:1039000023C082FF08C080911201829FB001839F73
:10391000700D112419C040918802411102C0B901F3
:1039200013C060911101461770F780911201849FB6
:10393000A0011124429FC001439F900D529F900D02
:10394000112470E00E9420346038710528F461155C
:10395000710521F0862F08958FE7089581E008957D
:10396000282F35EB2303C001112497FF03C0805893
:10397000910902C080589F4F892F0895CF92DF92FE
:10398000EF92FF92CF93DF93EC01C0907D02D09035
:103990007E02E0907F02F09080020E94F72CDC0112
:1039A000CB018C199D09AE09BF09843F9140A10547
:1039B000B10568F4C0927902D0927A02E0927B025B
:1039C000F0927C0284EF91E0A0E0B0E00EC00E9493
:1039D000F72C6093790270937A0280937B02909324
:1039E0007C0282E390E0A0E0B0E0809375029093C7
:1039F0007602A0937702B0937802D0938502C093A9
:103A00008402DF91CF91FF90EF90DF90CF900895E7
:103A1000FF920F931F93CF93DF9300918602109133
:103A200087020115110509F45AC0109285021092FF
:103A300084021092810210928202D80116962D9172
:103A40003C911797A9015A9541155F4108F4307EC2
:103A5000C22FD1E0211101C0D0E0F82ED801199673
:103A6000ED91FC911A97309739F01B966D917C91EE
:103A70001C9780E00995D823DD2369F08CEF8C0F2B
:103A8000813A20F48C2F0E94382D05C00E943F25DA
:103A90008C2F0E941A19E0918602F09187024081D2
:103AA0005181FF2071F0808584FD0BC080918302DD
:103AB000882339F091E09A01215031092F333E4794
:103AC00008F090E090FF03C0CA010E94BE1C0E9453
:103AD0003F25109287021092860210928302C8013D
:103AE000CDB7DEB7E5E00C947E34FC0184818623FB
:103AF000C1F492819923B9F08085692383FF04C0C2
:103B000081E0611111C00DC0892F8F7092959F7057
:103B1000982B862F8F7062956F70682B81E09617B7
:103B200019F080E0089581E00895CF93DF93C4E811
:103B3000D1E060E0CE010E94E4332196C11584E01B
:103B4000D807B9F7DF91CF910895883080F49B01B1
:103B5000982F8AE0989FB00111246C567F4F4AE05D
:103B600050E0C9010E94B63380E090E008958FEFE5
:103B70009FEF08951F93CF93DF93962F8430E8F43F
:103B80006330D8F44330C8F4632F122FC42FD0E031
:103B9000CC0FDD1F26E0929FC00DD11D112492E1B4
:103BA000899FC00DD11D1124CE0188960E94E43357
:103BB000612FCE0189960E94E433DF91CF911F914E
:103BC00008950F931F93CF93DF93843008F56330EC
:103BD000F8F44330E8F4C42FD0E0CC0FDD1F26E02A
:103BE000629FC00DD11D112432E1839FC00DD11DF4
:103BF0001124CE0188960E94C63390E0182F00272A
:103C0000CE0189960E94C6339801282BC90102C0B3
:103C100080E090E0DF91CF911F910F910895BC015A
:103C20004091710280917202942F981729F1292FE7
:103C300030E0F901EE0FFF1FE759FD4F0190F081D1
:103C4000E02DE617F70799F487E0869FF001879F3C
:103C5000F00D1124E853FE4F81E0848394130CC0CF
:103C60002F5F3F4F237033272093710208952F5FFA
:103C70003F4F922F9370D9CF0895EF92FF920F93F9
:103C80001F93CF93DF93809100028823D9F1C091D5
:103C9000C7018DE0F82E80910002C81778F5EE2458
:103CA000E394EC0EE092C701D0E0FC9EF001FD9E93
:103CB000F00D1124EF5FFD4F84818823E9F08781A7
:103CC0009085892B21F481859285019659F4008194
:103CD000118122813381448155816681778180857C
:103CE0000E94B617FC9EF001FD9EF00D1124EF5FBF
:103CF000FD4F14821092BC02CE2DCDCF1092000247
:103D00001092C701CDB7DEB7E6E00C947D34109277
:103D1000C6011092C501E8ECF1E08581811102C075
:103D200014821682379682E0E030F807B1F70895E2
:103D3000109274021092730210920E01809172021E
:103D4000809371020E94871E0E943D1E0895A0E08C
:103D5000B0E0EDEAFEE10C945634C091710297E0B8
:103D6000992E01E010E02DE0322E34E0432E552450
:103D7000539480917202C81709F479C0D0E0FE0113
:103D8000EE0FFF1FE759FD4F80819181989ED00172
:103D9000999EB00D1124A853BE4F14962C911497E0
:103DA000211162C070900002E1E0F2E020E030E01A
:103DB000812C5D01271508F055C0E384F484D501FA
:103DC000CD90DC906FEF7FEF612C462D50E0DA0153
:103DD000AA0FBB1FAC0DBD1D0D90BC91A02D10975F
:103DE00031F0EA16FB0609F4BA016394EECF6F3F97
:103DF000BFEF7B0799F1D80102C0AA0FBB1F6A95DC
:103E0000E2F78A2AB801062C02C0660F771F0A94CF
:103E1000E2F7AB0141505109682D70E04617570792
:103E2000E1F4329EF001339EF00D1124EF5FFD4F5F
:103E3000989ED001999EB00D1124A853BE4F1296A2
:103E40002D913C91139730872783448210821182F1
:103E50009287818715965C9205C014822F5F3F4F31
:103E60003D96A8CF0E940F1E2196C37082CF0E945C
:103E70003D1E0E94871ECDB7DEB7E1E10C9472347F
:103E800080910D01877F80930D0182E00E9489243B
:103E900080910D0184FF06C08F7E80930D0182E02A
:103EA0000E94972480910D0185FF06C08F7D80932D
:103EB0000D0180E20E9497240E943F250895662309
:103EC00029F02091BC0222602093BC029C01305258
:103ED0002115304308F499270E94EC30089500978B
:103EE00041F0EFE9FFE03197F1F700C000000197E2
:103EF000F6CF0895A0E0B0E0E0E8FFE10C945D3477
:103F00005C017B01C42E890180910D0182FF88C074
:103F1000C091C301D091C401CA15DB0521F0A114E1
:103F2000B10409F07DC080910D018B7F80930D015C
:103F300081FD11C08091C1019091C201A701481B70
:103F4000590B81E020910B0130910C01421753076E
:103F500018F480E001C081E08170D82E80910D01BD
:103F6000D0FA81F980930D01FE01FF2784E0F695D8
:103F7000E7958A95E1F79E012F703327EE0FFF1F1B
:103F8000EF55FE4F81E090E002C0880F991F2A95FF
:103F9000E2F7DD2029F020813181822B932B06C0AE
:103FA0008095909520813181822393239183808312
:103FB0008091A00181FF08C080910D0180618093F4
:103FC0000D0182E00E9490248091A00185FF08C02D
:103FD00080910D01806280930D0180E20E94902407
:103FE000A8016D2DCE010E945F1FCC2031F0809181
:103FF000A40285FF02C086FF2BC08091A70290918A
:10400000A8020E946F1F8091C3019091C4019C017E
:1040100030522115304308F499270E94D23012C043
:10402000C50190528115904318F4C501992701C02C
:10403000C5010E94D2308091C3019091C401A8169D
:10404000B90611F40E94401FF092C201E092C10132
:10405000CDB7DEB7EAE00C9479340F931F93CF937A
:10406000DF9309E812E0C0E7D0E0CE010E94C6333A
:10407000F80181938F012196C439D105B1F7C0E0D1
:10408000D0E0FE01EA54FD4F85919491009711F024
:10409000FC0109952C96CC3FD10599F7DF91CF9182
:1040A0001F910F910895E9E8F2E0128E138E8FEAC6
:1040B00090E09183808325E0248F88E893E19383C7
:1040C00082838AE090E09583848344E150E05783C3
:1040D000468348E050E051874087938782876EE1AE
:1040E00070E0758764879787868780E590E0918B7D
:1040F000808B538B428B48E250E0558B448B42E3DC
:1041000050E0578B468B48EC50E0518F408F158E16
:10411000178E168E91A380A322A30E944A310E947B
:1041200085171092890310928803E9E8F3E08081F3
:1041300084608083609188037091890384E090E0BB
:104140000E9402340E942D200895AEE1B0E0EBEA17
:10415000F0E20C945934A0900F01B090100181E06E
:1041600090E09093100180930F01612CC12CD12C11
:10417000712CE12CF12C00E010E046018E0C9F1C0C
:10418000F801EE0FFF1FE80DF91DE855FC4F2591D2
:104190003491402F672D862D0E94BA1D0F5F1F4F4F
:1041A0000330110569F786E0E80EF11C7394E3E033
:1041B0007E12E1CFF2E1CF0ED11C639484E068124D
:1041C000D7CF0E9453201A8219821C821B821E8222
:1041D0001D8218861F8288EC90E09A87898704E9FF
:1041E00010E04AE050E0B801CE0101960E94083488
:1041F000065F1F4F043E1105A1F77E01EBE0EE0EB6
:10420000F11C8AE0F70111928A95E9F74AE050E043
:10421000B801C7010E940834065F1F4F0433F1E064
:104220001F07A1F77E0185E1E80EF11C8AE0F70186
:1042300011928A95E9F78FEF9FEF9A8F898F87E028
:104240008E8F4AE050E0B801C7010E940834065F33
:104250001F4F0438F1E01F07A1F7B0921001A092A0
:104260000F016E96EEE00C94753480E00E940C1BFA
:1042700060E070E0CB010E94F42D0E94A5200E9416
:10428000951D81E00E940C1B089580E00895909197
:10429000880392FF10C041E0282F2471243009F0D8
:1042A00040E031E0282F2871283009F030E0431732
:1042B00011F02CE0822793FF10C041E0282F2471D9
:1042C000243109F040E031E0282F2871283109F02D
:1042D00030E0431711F02CE082273091890330FF42
:1042E00010C051E0282F2171213009F050E041E049
:1042F000282F2871283009F040E0541711F029E0E8
:10430000822731FF10C041E0282F2171213109F0AF
:1043100040E031E0282F2871283109F030E04317C0
:1043200011F029E0822794FD877E08958238910557
:1043300069F1B0F48133910509F475C048F489320C
:10434000910509F467C08A32910509F471C0089596
:104350008533910509F459C089339105B9F0089561
:10436000833E910589F138F4803E9105D1F0823E7B
:10437000910529F10895863E9105C9F1873E910581
:10438000D9F1843E910509F06CC027C020918803C3
:1043900020FD57C021FD55C02091890323FD5BC03E
:1043A00008958091880380FD48C08091890380FF33
:1043B00048C08091880384FD46C083EE51C080913F
:1043C000880382FF3CC0F5CF8091880382FD37C00F
:1043D0008091890380FD35C0ECCF8091890381FFF6
:1043E00036C08091880384FD2EC087EE39C080914D
:1043F000880383FF2AC0F5CF8091880383FD25C001
:104400008091890381FD23C0ECCF8091880385FDD5
:1044100022C01FC08091880385FD1BC08091890345
:1044200083FF19C00AC08091880386FD16C017C09B
:104430008091880386FD13C010C089E311C082EE0D
:104440000FC080EE0DC080E00BC086EE09C084EE88
:1044500007C085E305C089E203C08AE201C081E3A9
:1044600090E00895F894E82FE295EF70F0E031A124
:10447000282F2F7081E090E001C0880F2A95EAF77D
:10448000982F9095932391A392A1892B82A378943E
:104490000895A3E0B0E0EFE4F2E20C945C341982FA
:1044A0001A821B8205E211E0AE014F5F5F4F7A0175
:1044B0005A01CC24C394D12CF80180818F3F09F498
:1044C00041C0F894E82FE295EF70F0E021A18F70E1
:1044D000A60102C0440F551F8A95E2F7CA01922F28
:1044E000982B91A392A18095892382A3789400C0F0
:1044F000E8E2F1E0912C31E021912F3F89F0A22FE9
:10450000A295AF70B0E090968C9190E02F7002C0B1
:10451000959587952A95E2F780FD02C0832F01C00B
:1045200080E0982A330F51E0EB32F50729F7F801C4
:1045300080818F3F11F00E943222F0EAFA95F1F764
:10454000F70190820F5F1F4FFFEFEF1AFF0A41E064
:104550000832140709F0B0CF43E050E0B5018EE710
:1045600091E00E948C34892B99F089819A81AB81EA
:1045700080937E0190937F01A093800181E08093DE
:1045800045030E94032D90934403809343030EC080
:1045900080914503882351F0009143031091440317
:1045A0000E94032D801B910B059710F480E01BC027
:1045B00043E050E06EE771E085E991E00E948C34C1
:1045C000892B71F080917E0190917F01A0918001F3
:1045D0008093950190939601A093970181E001C08B
:1045E00080E0109245032396EBE00C947834209100
:1045F000980130919901232BA1F4703F39F4603F69
:1046000081F480919003909191030895733048F460
:10461000633038F4843028F4462F672F0E94E11D60
:10462000089580E090E008951F93CF93DF930E9458
:104630009621EC01C11580E5D807E8F5C11590E495
:10464000D90708F0A8C0C03ED10530F5CD3CD10552
:1046500008F094C0C83AD10578F4C53AD10508F0FD
:1046600083C0C130D10509F47CC008F4F2C0C43065
:10467000D10508F0F1C0EDC0C33CD10508F0E9C098
:10468000C85AD0E0CC0FDD1FC25DDE4F0990D88143
:10469000C02DCE019464E1C0C11580E2D80708F0B6
:1046A000CBC0C11591E0D90708F06BC0C83ED10559
:1046B00008F4D2C0CEC0C03682E5D80728F5C03491
:1046C00092E5D90708F079C0C03282E5D80708F032
:1046D0006CC0C11592E5D90708F481C04C2F4695EE
:1046E000469580E2489FA0011124C37021E030E08C
:1046F000C90102C0880F991FCA95E2F7EA01C82BC9
:10470000D92BCE019D68A9C0C03A82E5D807B8F47C
:104710008C2F8F71C03892E5D90708F07BC0869541
:10472000869590E2899F90011124C37081E090E00A
:1047300002C0880F991FCA95E2F79A6868C0C03C0A
:1047400082E5D80708F46DC0C03E92E5D90708F0AD
:1047500080C0CF71DD27DC2FCC27CE01806F906A1F
:104760007CC081E090E079C0C55AD0E0C55DDE4FE5
:104770008881C82FD0E0CE0190646FC0CE019065D3
:104780006CC08D2F0E944721182FCE0199270E94BF
:1047900096211F715CC0CE0199270E949621CC27DB
:1047A000DF70D06A8C2B9D2B58C0CF71D0E0DC2FEE
:1047B000CC27CE01816F906A50C08C2F8F71869567
:1047C000869590E2899F90011124C37081E090E06A
:1047D00002C0880F991FCA95E2F79C6818C08C2FF9
:1047E0008F710E94472195E0D695C7959A95E1F77C
:1047F000CF70D0E0DC2FCC27282F30E084FF05C01D
:1048000084E0220F331F8A95E1F7D069CE01822B15
:10481000932B23C090E0D82FCC27CE01846F906AD1
:104820001CC08C2F8F710E9447218F7190E0D82F70
:10483000CC27CE01906211C08D2F8F710E9447212D
:10484000182FCE0199270E9496211F719062912BFB
:1048500004C080E090E001C0CE01DF91CF911F91B4
:104860000895A6E0B0E0E7E3F4E20C9463340E941C
:10487000032D8C0180914103909142030817190781
:1048800081F019821A820E94032D682F49815A8172
:10489000792F80E090E00E942D2E10934203009328
:1048A00041032696E4E00C947F34809140038823F2
:1048B00031F01092400310923F0310923E0308958E
:1048C000CF939091890392FF0DC090914003981768
:1048D00049F0C82F0E94032D90933F0380933E031D
:1048E000C0934003CF91089590914003292F28232E
:1048F00079F08095892380934003882319F00E94E2
:10490000032D02C080E090E090933F0380933E032C
:10491000089580959091BC0289238093BC020895EC
:1049200080959091A00189238093A0010895909192
:10493000A001892B8093A001089510921503109275
:104940001403109213030895909115038095892301
:1049500080931503282F277069F4981759F09091C8
:10496000890392FF07C08695869586950E94361525
:104970000E949D2408959091890392FB222720F99B
:10498000281779F080FB92F990938903609188034E
:104990007091890384E090E00E94023482E00E94DA
:1049A000A42408959091890392FF10C098E0899FF4
:1049B00090011124262B209315030E9443150E9479
:1049C000032D909314038093130308950E944315BD
:1049D000089580918B0290918C02892B89F00E941E
:1049E000032D20913E0330913F03AC01421B530B3A
:1049F00081E020918B0230918C024217530708F41A
:104A000080E081700895CF93C091A0018091BC0295
:104A1000C82B80914003882349F180918B029091AB
:104A20008C02892B29F00E94E92481110E945524CF
:104A300080914003C82B80911701813041F480910F
:104A4000880387FF04C02EE184E693E003C026E0DC
:104A50008CE593E0FC0180E0215028F091919923AE
:104A6000D9F38F5FF9CF81110E9455248091810283
:104A70008095C823809182028C2BCF9108958091DC
:104A80001701813051F58091880387FF26C00E946D
:104A900003258093630340E250E066E173E082E621
:104AA00093E00E948C34892BD9F180E2E2E6F3E0B6
:104AB000A6E1B3E001900D928A95E1F7E0918403BD
:104AC000F0918503309761F186E080936203048062
:104AD000F581E02D82E693E022C00E9403258093B9
:104AE0005A0348E050E066E373E08AE593E00E94F1
:104AF0008C34892BA9F088E0EAE5F3E0A6E3B3E083
:104B000001900D928A95E1F7E0918403F09185037D
:104B1000309731F00280F381E02D8AE593E009952A
:104B2000089590911203292F282321F0809598232E
:104B3000909312030895209111039091C80259E0B7
:104B40002917A9F030E0529FF001539FF00D112476
:104B5000E753FD4F7181761306C07081781303C04F
:104B60007581741306C02F5F3F4F2770E9CF80E037
:104B7000089581E00895809111039091C8028917EA
:104B800019F08F5F8770FBCF0895A0E0B0E0EBECE9
:104B9000F5E20C9460348091C50282958F7009F023
:104BA00052C08091C402882309F44DC0C091110302
:104BB00089E0D82E8091C802C81709F444C0D0E01B
:104BC000DC9E8001DD9E100D1124F801E753FD4F9E
:104BD00084818823A9F191818091C002981330C00B
:104BE00090818091BF0298132BC08581811128C0CC
:104BF000E280F3808091C1029091C202E81AF90A22
:104C000060E08FEB92E00E941E2E6FEB72E00E943C
:104C10001632E816F906A0F48091C5028F70806103
:104C20008093C502F801E153FD4F80818F70806150
:104C300080838FEB92E00E945F030E94BB2503C03C
:104C40002196C770B7CFCDB7DEB7E7E00C947C34C0
:104C5000A0E0B0E0EEE2F6E20C945B346C015B01A4
:104C60008AE0882EC501F6010995882309F499C0C8
:104C7000813009F040C0C501F6010995813021F469
:104C8000C501F60109958AC0823031F4C501F601EB
:104C900009950E944D19E6CF833031F4C501F60124
:104CA00009950E941A19DECF843011F5C501F6016D
:104CB0000995C0E0D0E0282F30E0205331092A3098
:104CC000310560F48C9EC0018D9E900D1124E90188
:104CD000C80FD91FC501F6010995EDCF209741F006
:104CE000EFE9FFE03197F1F700C000002197F6CF20
:104CF0008111B8CF56C0E82FF0E0E150FA4F949000
:104D0000282F26952695269530E0F901E151FA4F96
:104D10000491877010E0082E02C0159507950A943B
:104D2000E2F701701127F901E152FA4FE490F12CFA
:104D3000082E02C0F594E7940A94E2F7F1E0EF221E
:104D4000FF24F901E153FA4FC491D0E002C0D59598
:104D5000C7958A95E2F7C170DD270115110519F095
:104D600081EE0E944D19E114F10419F086EE0E94C3
:104D70004D1960E070E0892D0E94BD19E114F10425
:104D800019F086EE0E941A190115110519F081EE2D
:104D90000E941A19CD2B09F465CF8CE20E94D51917
:104DA00061CFCDB7DEB7ECE00C947734A2E0B0E091
:104DB000ECEDF6E20C9465349A838983BE016F5F53
:104DC0007F4F83EE99E10E9428262296E2E00C9420
:104DD0008134AAE2B0E0EFEEF6E20C946434E2E54E
:104DE000F3E08AE593E02091F10021938E179F076D
:104DF000D1F780915303833009F463C030F48130DC
:104E000071F0823009F4A2C0B9C08A3009F48EC0B2
:104E10008B3009F46EC0893009F0B0C020C0809199
:104E20005203813A09F0AAC08091E800877F8093FD
:104E3000E8008091560390915703892B21F468E094
:104E400086E493E003C060E080E090E070E00E94C0
:104E5000FB2B8091E8008B778093E8008FC08091D6
:104E60005203813209F08AC0809156039091570312
:104E7000009719F0029709F081C08091E800877FC0
:104E80008093E8008091E80082FD05C08091500386
:104E90008111F8CF73C02091F3008091F20090E06F
:104EA000922B029731F48091F100813011F086301D
:104EB00021F48091F100809316018091E8008B77B6
:104EC00059C080915203813A09F058C0809156032D
:104ED00090915703892B09F051C08091E800877F9A
:104EE0008093E8008091E80080FFFCCF809117015B
:104EF0003CC080915203813209F040C0809156033A
:104F000090915703892BD1F58091E800877F80939A
:104F1000E8000E94662A81E090915403911101C03B
:104F200080E0809317010E94851728C0809152036A
:104F3000813221F58091E800877F8093E8000E940C
:104F4000662A809155038093150118C08091520301
:104F5000813AA1F48091E800877F8093E8008091F6
:104F6000E80080FFFCCF809115018093F1008091D3
:104F7000E8008E778093E8000E94662A8091E8001E
:104F800083FFF3C18091520390915303492F50E066
:104F90004A30510508F0E9C1FA01E955FF4F0C9478
:104FA0004834803821F0823809F0DFC108C0809190
:104FB0004E0390914F03992389F082600FC0809136
:104FC00056038F70873008F0D0C18093E90080913C
:104FD000EB0085FB882780F91092E9009091E800AA
:104FE000977F9093E8008093F1001092F1007DC1CB
:104FF000282F2D7F09F0B9C1882319F0823061F084
:10500000B4C180915403813009F0AFC1933009F0ED
:1050100080E080934F032EC08091540381112AC0F9
:10502000809156038F702FEF280F263008F09DC116
:105030008093E9002091EB0020FF1CC0933021F405
:105040008091EB00806214C09091EB00906190938E
:10505000EB0021E030E0A90102C0440F551F8A9502
:10506000E2F74093EA001092EA008091EB0088603A
:105070008093EB001092E9008091E800877F809395
:10508000E8000E94662A71C181116FC1109154031A
:105090001F778091E3008078812B8093E3008091DB
:1050A000E800877F8093E8000E94662A8091E800EC
:1050B00080FFFCCF8091E30080688093E3001111B2
:1050C00002C082E001C083E0809350034EC180584B
:1050D000823008F04AC120915403309155032C3D91
:1050E00053E0350779F583E08A838AE289834FB7F5
:1050F000F894DE01139620E03EE051E2E32FF0E069
:1051000050935700E49120FF03C0E295EF703F5F9A
:10511000EF708E2F90E0EA3010F0C79601C0C09675
:105120008D939D932F5F243149F74FBF8091E80005
:10513000877F8093E8006AE270E0CE0101960E94CA
:10514000FB2BC1C08091560390915703432F5527E5
:1051500043305105B1F068F44130510509F414C1F0
:105160004230510509F001C18BE590E0ECE0F5E03B
:1051700057C04132510589F14232510509F43CC012
:10518000F4C0C901992781309105B9F070F08230DF
:105190009105D9F0039709F0E8C0E9E7F5E0E4915B
:1051A0008E2F90E0E9E7F5E038C0EBECF5E0E49114
:1051B0008E2F90E0EBECF5E030C0EFEAF5E0E49103
:1051C0008E2F90E0EFEAF5E028C0E7E9F5E0E49102
:1051D0008E2F90E0E7E9F5E020C08330910508F0DC
:1051E000C4C0880F991FFC01E359FE4F0190F08164
:1051F000E02D89E090E014C08330910508F0B5C03F
:10520000FC01EE0FFF1FE959FE4F0190F081E02DE8
:10521000DC01AC59BE4F8C9190E0009709F4A5C019
:105220002091E800277F2093E800209158033091D7
:1052300059038217930708F49C0140E021153105BA
:1052400089F180915003882309F43DC08530D9F15C
:105250008091E80083FD37C08091E80082FD2FC077
:105260008091E80080FFEACF4091F3008091F20046
:1052700090E0942B2115310559F08830910540F4C8
:1052800044914093F1003196215031090196F2CFBB
:1052900041E0089709F040E08091E8008E77809324
:1052A000E800CCCF4111CDCF0AC0809150038823B4
:1052B00051F0853041F08091E80083FD04C0809179
:1052C000E80082FFF2CF8091E8008B778093E800BE
:1052D0004CC0803809F049C08091E800877F8093F6
:1052E000E800809151038093F1008091E8008E776F
:1052F000C6CE81113AC080915403909155039927ED
:1053000002979CF58091E800877F8093E8001091D8
:105310005403109351030E94662A111106C0809114
:10532000E30087FD02C081E001C084E08093500368
:1053300042E061EC81E00E94852A42E261EC84E077
:105340000E94852A42E261EC82E00E94852A42E2C4
:1053500060EC83E00E94852A80915003843011F034
:1053600081E001C082E0809318018091E80083FF12
:1053700010C08091E800877F8093E8008091EB0067
:1053800080628093EB0005C082E190E0E7E6F5E003
:1053900047CFAA96E3E00C948034809116010895DB
:1053A0001F920F920FB60F9211242F933F934F939A
:1053B0005F936F937F938F939F93AF93BF93CF939D
:1053C000DF93EF93FF93C091E900CF708091EC00E1
:1053D000D82FD17080FDD0E81092E9008091F000C4
:1053E000877F8093F00078940E94E9261092E9006C
:1053F0008091F00088608093F000CD2BCF70C09337
:10540000E900FF91EF91DF91CF91BF91AF919F9113
:105410008F917F916F915F914F913F912F910F905D
:105420000FBE0F901F901895E8EDF0E080818E7F01
:1054300080831092E2001092DA001092E100A0EE58
:10544000B0E08C9181608C9380818F77808319BCD0
:10545000A7EDB0E08C918E7F8C9380818F7E8083CE
:1054600010928F0308952091E4003091E50095E6B5
:105470004091EC00842F817040FF23C08091E800B0
:1054800080FD1DC080915003882399F0853099F0EC
:105490008091EB0085FD11C04091E4005091E50042
:1054A0002417350729F3915011F09A01E1CF84E0D8
:1054B000089582E0089583E0089581E0089580E0F2
:1054C00008954091E80042FFDDCF08958091520396
:1054D00087FF11C08091E80082FD05C080915003D4
:1054E0008111F8CF11C08091E8008B770BC08091BB
:1054F0005003882349F08091E80080FFF8CF809125
:10550000E8008E778093E8000895982F973068F52B
:105510009093E900981739F07091EC002091ED001C
:105520005091F00003C0242F762F50E021FD02C0DF
:105530009F5FECCF3091EB003E7F3093EB003091DA
:10554000ED003D7F3093ED003091EB003160309302
:10555000EB007093EC002093ED005093F00020914D
:10556000EE0027FDE5CF80E008958F708093E9007D
:1055700081E00895A0E0B0E0E0ECFAE20C945F3442
:10558000C8EDD0E088818F7E8883E7EDF0E08081F0
:105590008160808384E082BF81E080938F03888173
:1055A0008E7F888302EE10E0F80110821092DA00FC
:1055B00081EEC82ED12CF601108288818F778883E6
:1055C00088818068888388818F7D888319BC109248
:1055D00050031092510310924F0310924E0390EE1D
:1055E000E92EF12CF70180818B7F80838881816097
:1055F000888342E060E080E00E94852AF601808195
:105600008E7F8083F80180818160808380818860C3
:105610008083F70180818E7F808388818061888389
:10562000CDB7DEB7E8E00C947B341F920F920FB633
:105630000F9211242F933F934F935F936F937F9318
:105640008F939F93AF93BF93EF93FF938091E1006C
:1056500082FF09C08091E20082FF05C08091E100D5
:105660008B7F8093E1008091DA0080FF2AC08091D7
:10567000D80080FF26C08091DA008E7F8093DA0008
:105680008091D90080FF18C080E189BD82E189BD89
:1056900009B400FEFDCF81E08093500380918F0319
:1056A00081110FC00E94142A0E94BA2A8091E20040
:1056B00084608093E20005C019BC109250031092E0
:1056C0008F038091E10080FF1AC08091E20080FF8B
:1056D00016C08091E2008E7F8093E2008091E2000C
:1056E00080618093E2008091D80080628093D8002E
:1056F00019BC85E08093500383E08093180180916A
:10570000E10084FF37C08091E20084FF33C080E174
:1057100089BD82E189BD09B400FEFDCF8091D8002A
:105720008F7D8093D8008091E1008F7E8093E1008F
:105730008091E2008F7E8093E2008091E2008160A0
:105740008093E20080915103882311F084E007C028
:105750008091E30087FD02C081E001C083E0809377
:10576000500380915003843011F081E001C082E049
:10577000809318018091E10083FF2CC08091E200AA
:1057800083FF28C08091E100877F8093E10082E061
:1057900080935003109251038091E1008E7F80939B
:1057A000E1008091E2008E7F8093E2008091E20030
:1057B00080618093E20042E060E080E00E94852A00
:1057C0008091F00088608093F00081E08093180160
:1057D00080931701FF91EF91BF91AF919F918F91AE
:1057E0007F916F915F914F913F912F910F900FBEDD
:1057F0000F901F9018952091580330915903261748
:10580000370748F06115710539F42091E8002E77CB
:105810002093E80001C0B901FC0120E06115710589
:1058200079F1809150038823F1F18530F1F1809175
:10583000E80083FD3CC08091E80082FD2EC080918D
:10584000E80080FFEBCF2091F3008091F20090E020
:10585000922B6115710551F08830910538F4219132
:105860002093F100615071090196F3CF21E0089770
:1058700009F020E08091E8008E778093E800CECF99
:105880002111CFCF0AC080915003882361F0853069
:1058900061F08091E80083FD0AC08091E80082FFFA
:1058A000F2CF80E0089582E0089583E0089581E0DA
:1058B00008950F931F93CF93DF938B01EA0190918B
:1058C0005003943079F58F708093E9008FEF9091B9
:1058D000E800815095FD06C095ED9A95F1F700001E
:1058E0008111F5CF8091E80085FF1CC00E94332A0A
:1058F000882361F08091E8008E778093E80012C0E1
:10590000F80181918F018093F1002197209791F305
:105910008091E80085FDF4CF8091E8008E77809338
:10592000E800E4CFDF91CF911F910F91089543E0FC
:1059300050E0BC0184E00E94592C089546E050E0FC
:10594000BC0184E00E94592C089540E250E0BC0163
:1059500084E00E94592C0895CF93DF93EC0148E036
:1059600050E0BC0181E00E94592C88E0FE01A6E4D1
:10597000B3E001900D928A95E1F7DF91CF91089500
:1059800087E797E790930108809300089AE088E101
:105990000FB6F894A895809360000FBE90936000B6
:1059A000FFCF78941F920F920FB60F9211248F930E
:1059B0009F93AF93BF9380918B0390918C03A091A1
:1059C0008D03B0918E030196A11DB11D80938B03B1
:1059D00090938C03A0938D03B0938E03BF91AF91EE
:1059E0009F918F910F900FBE0F901F9018952FB71A
:1059F000F89460918B0370918C0380918D0390914A
:105A00008E032FBF08952FB7F89480918B03909148
:105A10008C03A0918D03B0918E032FBF08951F9228
:105A20000F920FB60F9211248F939F93AF93BF9352
:105A300080918A03811113C080918B0390918C0314
:105A4000A0918D03B0918E034196A11DB11D80934D
:105A50008B0390938C03A0938D03B0938E03BF911F
:105A6000AF919F918F910F900FBE0F901F9018953F
:105A700090911701913021F49091880397FD03C014
:105A8000EAE5F3E01DC0E82FE695E695E695EE31F0
:105A9000E0F4F0E0EE59FC4F877021E030E0A9011E
:105AA00002C0440F551F8A95E2F7CA018095928182
:105AB000892382830895319653E0E036F50729F073
:105AC00092818913F8CF1282F6CF08959091170131
:105AD0009130D1F49091880397FF16C0E82FE69596
